{
  "_format": "hh-sol-artifact-1",
  "contractName": "Voting",
  "sourceName": "contracts/Voting.sol",
  "abi": [
    {
      "inputs": [],
      "stateMutability": "nonpayable",
      "type": "constructor"
    },
    {
      "inputs": [
        {
          "internalType": "address",
          "name": "owner",
          "type": "address"
        }
      ],
      "name": "OwnableInvalidOwner",
      "type": "error"
    },
    {
      "inputs": [
        {
          "internalType": "address",
          "name": "account",
          "type": "address"
        }
      ],
      "name": "OwnableUnauthorizedAccount",
      "type": "error"
    },
    {
      "anonymous": false,
      "inputs": [
        {
          "indexed": true,
          "internalType": "address",
          "name": "previousOwner",
          "type": "address"
        },
        {
          "indexed": true,
          "internalType": "address",
          "name": "newOwner",
          "type": "address"
        }
      ],
      "name": "OwnershipTransferred",
      "type": "event"
    },
    {
      "anonymous": false,
      "inputs": [
        {
          "indexed": false,
          "internalType": "uint256",
          "name": "proposalId",
          "type": "uint256"
        }
      ],
      "name": "ProposalRegistered",
      "type": "event"
    },
    {
      "anonymous": false,
      "inputs": [
        {
          "indexed": false,
          "internalType": "address",
          "name": "voter",
          "type": "address"
        },
        {
          "indexed": false,
          "internalType": "uint256",
          "name": "proposalId",
          "type": "uint256"
        }
      ],
      "name": "VoteCancelled",
      "type": "event"
    },
    {
      "anonymous": false,
      "inputs": [
        {
          "indexed": false,
          "internalType": "address",
          "name": "voter",
          "type": "address"
        },
        {
          "indexed": false,
          "internalType": "uint256",
          "name": "proposalId",
          "type": "uint256"
        }
      ],
      "name": "Voted",
      "type": "event"
    },
    {
      "anonymous": false,
      "inputs": [
        {
          "indexed": false,
          "internalType": "address",
          "name": "voterAddress",
          "type": "address"
        }
      ],
      "name": "VoterRegistered",
      "type": "event"
    },
    {
      "anonymous": false,
      "inputs": [
        {
          "indexed": false,
          "internalType": "enum Voting.WorkflowStatus",
          "name": "previousStatus",
          "type": "uint8"
        },
        {
          "indexed": false,
          "internalType": "enum Voting.WorkflowStatus",
          "name": "newStatus",
          "type": "uint8"
        }
      ],
      "name": "WorkflowStatusChange",
      "type": "event"
    },
    {
      "inputs": [
        {
          "internalType": "string",
          "name": "_description",
          "type": "string"
        }
      ],
      "name": "addProposal",
      "outputs": [],
      "stateMutability": "nonpayable",
      "type": "function"
    },
    {
      "inputs": [
        {
          "internalType": "address",
          "name": "_voterAddress",
          "type": "address"
        }
      ],
      "name": "addVoterToWhiteList",
      "outputs": [],
      "stateMutability": "nonpayable",
      "type": "function"
    },
    {
      "inputs": [],
      "name": "cancelVote",
      "outputs": [],
      "stateMutability": "nonpayable",
      "type": "function"
    },
    {
      "inputs": [],
      "name": "currentWorkflowStatus",
      "outputs": [
        {
          "internalType": "enum Voting.WorkflowStatus",
          "name": "",
          "type": "uint8"
        }
      ],
      "stateMutability": "view",
      "type": "function"
    },
    {
      "inputs": [],
      "name": "endProposalsRegistration",
      "outputs": [],
      "stateMutability": "nonpayable",
      "type": "function"
    },
    {
      "inputs": [],
      "name": "endVotingSession",
      "outputs": [],
      "stateMutability": "nonpayable",
      "type": "function"
    },
    {
      "inputs": [],
      "name": "getAllVotes",
      "outputs": [
        {
          "internalType": "address[]",
          "name": "",
          "type": "address[]"
        },
        {
          "internalType": "uint256[]",
          "name": "",
          "type": "uint256[]"
        }
      ],
      "stateMutability": "view",
      "type": "function"
    },
    {
      "inputs": [],
      "name": "getOwner",
      "outputs": [
        {
          "internalType": "address",
          "name": "",
          "type": "address"
        }
      ],
      "stateMutability": "view",
      "type": "function"
    },
    {
      "inputs": [],
      "name": "getWinningProposal",
      "outputs": [
        {
          "internalType": "string",
          "name": "",
          "type": "string"
        }
      ],
      "stateMutability": "view",
      "type": "function"
    },
    {
      "inputs": [],
      "name": "owner",
      "outputs": [
        {
          "internalType": "address",
          "name": "",
          "type": "address"
        }
      ],
      "stateMutability": "view",
      "type": "function"
    },
    {
      "inputs": [
        {
          "internalType": "uint256",
          "name": "",
          "type": "uint256"
        }
      ],
      "name": "proposals",
      "outputs": [
        {
          "internalType": "string",
          "name": "description",
          "type": "string"
        },
        {
          "internalType": "uint256",
          "name": "voteCount",
          "type": "uint256"
        }
      ],
      "stateMutability": "view",
      "type": "function"
    },
    {
      "inputs": [
        {
          "internalType": "address",
          "name": "_voterAddress",
          "type": "address"
        }
      ],
      "name": "registerVoter",
      "outputs": [],
      "stateMutability": "nonpayable",
      "type": "function"
    },
    {
      "inputs": [],
      "name": "renounceOwnership",
      "outputs": [],
      "stateMutability": "nonpayable",
      "type": "function"
    },
    {
      "inputs": [],
      "name": "resetSession",
      "outputs": [],
      "stateMutability": "nonpayable",
      "type": "function"
    },
    {
      "inputs": [],
      "name": "startProposalsRegistration",
      "outputs": [],
      "stateMutability": "nonpayable",
      "type": "function"
    },
    {
      "inputs": [],
      "name": "startVotingSession",
      "outputs": [],
      "stateMutability": "nonpayable",
      "type": "function"
    },
    {
      "inputs": [],
      "name": "tallyVotes",
      "outputs": [],
      "stateMutability": "nonpayable",
      "type": "function"
    },
    {
      "inputs": [
        {
          "internalType": "address",
          "name": "newOwner",
          "type": "address"
        }
      ],
      "name": "transferOwnership",
      "outputs": [],
      "stateMutability": "nonpayable",
      "type": "function"
    },
    {
      "inputs": [
        {
          "internalType": "uint256",
          "name": "_proposalId",
          "type": "uint256"
        }
      ],
      "name": "vote",
      "outputs": [],
      "stateMutability": "nonpayable",
      "type": "function"
    },
    {
      "inputs": [
        {
          "internalType": "address",
          "name": "",
          "type": "address"
        }
      ],
      "name": "voterAdress",
      "outputs": [
        {
          "internalType": "bool",
          "name": "isRegistered",
          "type": "bool"
        },
        {
          "internalType": "bool",
          "name": "hasVoted",
          "type": "bool"
        },
        {
          "internalType": "uint256",
          "name": "votedProposalId",
          "type": "uint256"
        }
      ],
      "stateMutability": "view",
      "type": "function"
    },
    {
      "inputs": [
        {
          "internalType": "address",
          "name": "",
          "type": "address"
        }
      ],
      "name": "whiteList",
      "outputs": [
        {
          "internalType": "bool",
          "name": "",
          "type": "bool"
        }
      ],
      "stateMutability": "view",
      "type": "function"
    },
    {
      "inputs": [
        {
          "internalType": "uint256",
          "name": "",
          "type": "uint256"
        }
      ],
      "name": "whiteListArray",
      "outputs": [
        {
          "internalType": "address",
          "name": "",
          "type": "address"
        }
      ],
      "stateMutability": "view",
      "type": "function"
    }
  ],
  "bytecode": "0x60806040523480156200001157600080fd5b5033600073ffffffffffffffffffffffffffffffffffffffff168173ffffffffffffffffffffffffffffffffffffffff1603620000885760006040517f1e4fbdf70000000000000000000000000000000000000000000000000000000081526004016200007f9190620001d7565b60405180910390fd5b6200009981620000ce60201b60201c565b506000600660006101000a81548160ff02191690836005811115620000c357620000c2620001f4565b5b021790555062000223565b60008060009054906101000a900473ffffffffffffffffffffffffffffffffffffffff169050816000806101000a81548173ffffffffffffffffffffffffffffffffffffffff021916908373ffffffffffffffffffffffffffffffffffffffff1602179055508173ffffffffffffffffffffffffffffffffffffffff168173ffffffffffffffffffffffffffffffffffffffff167f8be0079c531659141344cd1fd0a4f28419497f9722a3daafe3b4186f6b6457e060405160405180910390a35050565b600073ffffffffffffffffffffffffffffffffffffffff82169050919050565b6000620001bf8262000192565b9050919050565b620001d181620001b2565b82525050565b6000602082019050620001ee6000830184620001c6565b92915050565b7f4e487b7100000000000000000000000000000000000000000000000000000000600052602160045260246000fd5b6128dd80620002336000396000f3fe608060405234801561001057600080fd5b50600436106101425760003560e01c8063851b6ef2116100b8578063a7bfab161161007c578063a7bfab161461031b578063e09b8c7914610325578063ee74c6781461032f578063f2fde38b14610339578063f7ad764514610355578063f8a3ce821461037357610142565b8063851b6ef214610298578063893d20e8146102b75780638da5cb5b146102d557806395c96554146102f3578063a5134620146102fd57610142565b8063372c12b11161010a578063372c12b1146101fc578063378a21781461022c57806338db6dd3146102365780635ad123d3146102525780636c29744514610284578063715018a61461028e57610142565b80630121b93f14610147578063013cf08b14610163578063250d21ee14610194578063258c9de0146101c45780632fdae3c5146101e0575b600080fd5b610161600480360381019061015c9190611a64565b61037d565b005b61017d60048036038101906101789190611a64565b6106fe565b60405161018b929190611b30565b60405180910390f35b6101ae60048036038101906101a99190611a64565b6107ba565b6040516101bb9190611ba1565b60405180910390f35b6101de60048036038101906101d99190611be8565b6107f9565b005b6101fa60048036038101906101f59190611d4a565b6108be565b005b61021660048036038101906102119190611be8565b6109e2565b6040516102239190611dae565b60405180910390f35b610234610a02565b005b610250600480360381019061024b9190611be8565b610a72565b005b61026c60048036038101906102679190611be8565b610b97565b60405161027b93929190611dc9565b60405180910390f35b61028c610bdb565b005b610296610c4b565b005b6102a0610c5f565b6040516102ae929190611f7c565b60405180910390f35b6102bf610f20565b6040516102cc9190611ba1565b60405180910390f35b6102dd610f2f565b6040516102ea9190611ba1565b60405180910390f35b6102fb610f58565b005b6103056112d9565b6040516103129190611fb3565b60405180910390f35b610323611485565b005b61032d6114f5565b005b610337611565565b005b610353600480360381019061034e9190611be8565b6115d5565b005b61035d61165b565b60405161036a919061204c565b60405180910390f35b61037b61166e565b005b6003600581111561039157610390611fd5565b5b600660009054906101000a900460ff1660058111156103b3576103b2611fd5565b5b146103f3576040517f08c379a00000000000000000000000000000000000000000000000000000000081526004016103ea906120b3565b60405180910390fd5b600460003373ffffffffffffffffffffffffffffffffffffffff1673ffffffffffffffffffffffffffffffffffffffff16815260200190815260200160002060000160009054906101000a900460ff16610482576040517f08c379a00000000000000000000000000000000000000000000000000000000081526004016104799061211f565b60405180910390fd5b600160003373ffffffffffffffffffffffffffffffffffffffff1673ffffffffffffffffffffffffffffffffffffffff16815260200190815260200160002060009054906101000a900460ff1661050e576040517f08c379a00000000000000000000000000000000000000000000000000000000081526004016105059061218b565b60405180910390fd5b600460003373ffffffffffffffffffffffffffffffffffffffff1673ffffffffffffffffffffffffffffffffffffffff16815260200190815260200160002060000160019054906101000a900460ff161561059e576040517f08c379a0000000000000000000000000000000000000000000000000000000008152600401610595906121f7565b60405180910390fd5b60058054905081106105e5576040517f08c379a00000000000000000000000000000000000000000000000000000000081526004016105dc90612263565b60405180910390fd5b600581815481106105f9576105f8612283565b5b9060005260206000209060020201600101600081548092919061061b906122e1565b91905055506001600460003373ffffffffffffffffffffffffffffffffffffffff1673ffffffffffffffffffffffffffffffffffffffff16815260200190815260200160002060000160016101000a81548160ff02191690831515021790555080600460003373ffffffffffffffffffffffffffffffffffffffff1673ffffffffffffffffffffffffffffffffffffffff168152602001908152602001600020600101819055507f4d99b957a2bc29a30ebd96a7be8e68fe50a3c701db28a91436490b7d53870ca433826040516106f3929190612329565b60405180910390a150565b6005818154811061070e57600080fd5b906000526020600020906002020160009150905080600001805461073190612381565b80601f016020809104026020016040519081016040528092919081815260200182805461075d90612381565b80156107aa5780601f1061077f576101008083540402835291602001916107aa565b820191906000526020600020905b81548152906001019060200180831161078d57829003601f168201915b5050505050908060010154905082565b600281815481106107ca57600080fd5b906000526020600020016000915054906101000a900473ffffffffffffffffffffffffffffffffffffffff1681565b610801611817565b6002819080600181540180825580915050600190039060005260206000200160009091909190916101000a81548173ffffffffffffffffffffffffffffffffffffffff021916908373ffffffffffffffffffffffffffffffffffffffff16021790555060018060008373ffffffffffffffffffffffffffffffffffffffff1673ffffffffffffffffffffffffffffffffffffffff16815260200190815260200160002060006101000a81548160ff02191690831515021790555050565b600160058111156108d2576108d1611fd5565b5b600660009054906101000a900460ff1660058111156108f4576108f3611fd5565b5b14610934576040517f08c379a000000000000000000000000000000000000000000000000000000000815260040161092b90612424565b60405180910390fd5b6005604051806040016040528083815260200160008152509080600181540180825580915050600190039060005260206000209060020201600090919091909150600082015181600001908161098a91906125f0565b506020820151816001015550507f92e393e9b54e2f801d3ea4beb0c5e71a21cc34a5d34b77d0fb8a3aa1650dc18f60016005805490506109ca91906126c2565b6040516109d791906126f6565b60405180910390a150565b60016020528060005260406000206000915054906101000a900460ff1681565b610a0a611817565b7f0a97a4ee45751e2abf3e4fc8946939630b11b371ea8ae39ccdc3056e98f5cc3f60046005604051610a3d929190612711565b60405180910390a16005600660006101000a81548160ff02191690836005811115610a6b57610a6a611fd5565b5b0217905550565b600460008273ffffffffffffffffffffffffffffffffffffffff1673ffffffffffffffffffffffffffffffffffffffff16815260200190815260200160002060000160009054906101000a900460ff1615610b02576040517f08c379a0000000000000000000000000000000000000000000000000000000008152600401610af990612786565b60405180910390fd5b6001600460008373ffffffffffffffffffffffffffffffffffffffff1673ffffffffffffffffffffffffffffffffffffffff16815260200190815260200160002060000160006101000a81548160ff0219169083151502179055507fb6be2187d059cc2a55fe29e0e503b566e1e0f8c8780096e185429350acffd3dd81604051610b8c9190611ba1565b60405180910390a150565b60046020528060005260406000206000915090508060000160009054906101000a900460ff16908060000160019054906101000a900460ff16908060010154905083565b610be3611817565b7f0a97a4ee45751e2abf3e4fc8946939630b11b371ea8ae39ccdc3056e98f5cc3f60016002604051610c16929190612711565b60405180910390a16002600660006101000a81548160ff02191690836005811115610c4457610c43611fd5565b5b0217905550565b610c53611817565b610c5d600061189e565b565b606080600460003373ffffffffffffffffffffffffffffffffffffffff1673ffffffffffffffffffffffffffffffffffffffff16815260200190815260200160002060000160009054906101000a900460ff16610cf1576040517f08c379a0000000000000000000000000000000000000000000000000000000008152600401610ce89061211f565b60405180910390fd5b6000600280549050905060008167ffffffffffffffff811115610d1757610d16611c1f565b5b604051908082528060200260200182016040528015610d455781602001602082028036833780820191505090505b50905060008267ffffffffffffffff811115610d6457610d63611c1f565b5b604051908082528060200260200182016040528015610d925781602001602082028036833780820191505090505b5090506000805b600280549050811015610f1157600060028281548110610dbc57610dbb612283565b5b9060005260206000200160009054906101000a900473ffffffffffffffffffffffffffffffffffffffff169050600460008273ffffffffffffffffffffffffffffffffffffffff1673ffffffffffffffffffffffffffffffffffffffff16815260200190815260200160002060000160019054906101000a900460ff1615610efd5780858481518110610e5257610e51612283565b5b602002602001019073ffffffffffffffffffffffffffffffffffffffff16908173ffffffffffffffffffffffffffffffffffffffff1681525050600460008273ffffffffffffffffffffffffffffffffffffffff1673ffffffffffffffffffffffffffffffffffffffff16815260200190815260200160002060010154848481518110610ee257610ee1612283565b5b6020026020010181815250508280610ef9906122e1565b9350505b508080610f09906122e1565b915050610d99565b50828295509550505050509091565b6000610f2a610f2f565b905090565b60008060009054906101000a900473ffffffffffffffffffffffffffffffffffffffff16905090565b60036005811115610f6c57610f6b611fd5565b5b600660009054906101000a900460ff166005811115610f8e57610f8d611fd5565b5b14610fce576040517f08c379a0000000000000000000000000000000000000000000000000000000008152600401610fc5906120b3565b60405180910390fd5b600460003373ffffffffffffffffffffffffffffffffffffffff1673ffffffffffffffffffffffffffffffffffffffff16815260200190815260200160002060000160009054906101000a900460ff1661105d576040517f08c379a00000000000000000000000000000000000000000000000000000000081526004016110549061211f565b60405180910390fd5b600160003373ffffffffffffffffffffffffffffffffffffffff1673ffffffffffffffffffffffffffffffffffffffff16815260200190815260200160002060009054906101000a900460ff166110e9576040517f08c379a00000000000000000000000000000000000000000000000000000000081526004016110e09061218b565b60405180910390fd5b600460003373ffffffffffffffffffffffffffffffffffffffff1673ffffffffffffffffffffffffffffffffffffffff16815260200190815260200160002060000160019054906101000a900460ff16611178576040517f08c379a000000000000000000000000000000000000000000000000000000000815260040161116f906127f2565b60405180910390fd5b6000600460003373ffffffffffffffffffffffffffffffffffffffff1673ffffffffffffffffffffffffffffffffffffffff168152602001908152602001600020600101549050600581815481106111d3576111d2612283565b5b906000526020600020906002020160010160008154809291906111f590612812565b91905055506000600460003373ffffffffffffffffffffffffffffffffffffffff1673ffffffffffffffffffffffffffffffffffffffff16815260200190815260200160002060000160016101000a81548160ff0219169083151502179055506000600460003373ffffffffffffffffffffffffffffffffffffffff1673ffffffffffffffffffffffffffffffffffffffff168152602001908152602001600020600101819055507fd0c71f84a63a9b5864c48adde8c98859c81519c363097592efd0198e64ddb5f633826040516112ce929190612329565b60405180910390a150565b60606005808111156112ee576112ed611fd5565b5b600660009054906101000a900460ff1660058111156113105761130f611fd5565b5b14611350576040517f08c379a000000000000000000000000000000000000000000000000000000000815260040161134790612887565b60405180910390fd5b60008060005b6005805490508110156113cf57826005828154811061137857611377612283565b5b90600052602060002090600202016001015411156113bc57600581815481106113a4576113a3612283565b5b90600052602060002090600202016001015492508091505b80806113c7906122e1565b915050611356565b50600581815481106113e4576113e3612283565b5b9060005260206000209060020201600001805461140090612381565b80601f016020809104026020016040519081016040528092919081815260200182805461142c90612381565b80156114795780601f1061144e57610100808354040283529160200191611479565b820191906000526020600020905b81548152906001019060200180831161145c57829003601f168201915b50505050509250505090565b61148d611817565b7f0a97a4ee45751e2abf3e4fc8946939630b11b371ea8ae39ccdc3056e98f5cc3f600360046040516114c0929190612711565b60405180910390a16004600660006101000a81548160ff021916908360058111156114ee576114ed611fd5565b5b0217905550565b6114fd611817565b7f0a97a4ee45751e2abf3e4fc8946939630b11b371ea8ae39ccdc3056e98f5cc3f60006001604051611530929190612711565b60405180910390a16001600660006101000a81548160ff0219169083600581111561155e5761155d611fd5565b5b0217905550565b61156d611817565b7f0a97a4ee45751e2abf3e4fc8946939630b11b371ea8ae39ccdc3056e98f5cc3f600260036040516115a0929190612711565b60405180910390a16003600660006101000a81548160ff021916908360058111156115ce576115cd611fd5565b5b0217905550565b6115dd611817565b600073ffffffffffffffffffffffffffffffffffffffff168173ffffffffffffffffffffffffffffffffffffffff160361164f5760006040517f1e4fbdf70000000000000000000000000000000000000000000000000000000081526004016116469190611ba1565b60405180910390fd5b6116588161189e565b50565b600660009054906101000a900460ff1681565b611676611817565b6000600660006101000a81548160ff0219169083600581111561169c5761169b611fd5565b5b0217905550600560006116af919061196a565b60005b600280549050811015611814576000600282815481106116d5576116d4612283565b5b9060005260206000200160009054906101000a900473ffffffffffffffffffffffffffffffffffffffff1690506000600460008373ffffffffffffffffffffffffffffffffffffffff1673ffffffffffffffffffffffffffffffffffffffff16815260200190815260200160002060000160006101000a81548160ff0219169083151502179055506000600460008373ffffffffffffffffffffffffffffffffffffffff1673ffffffffffffffffffffffffffffffffffffffff16815260200190815260200160002060000160016101000a81548160ff0219169083151502179055506000600460008373ffffffffffffffffffffffffffffffffffffffff1673ffffffffffffffffffffffffffffffffffffffff1681526020019081526020016000206001018190555050808061180c906122e1565b9150506116b2565b50565b61181f611962565b73ffffffffffffffffffffffffffffffffffffffff1661183d610f2f565b73ffffffffffffffffffffffffffffffffffffffff161461189c57611860611962565b6040517f118cdaa70000000000000000000000000000000000000000000000000000000081526004016118939190611ba1565b60405180910390fd5b565b60008060009054906101000a900473ffffffffffffffffffffffffffffffffffffffff169050816000806101000a81548173ffffffffffffffffffffffffffffffffffffffff021916908373ffffffffffffffffffffffffffffffffffffffff1602179055508173ffffffffffffffffffffffffffffffffffffffff168173ffffffffffffffffffffffffffffffffffffffff167f8be0079c531659141344cd1fd0a4f28419497f9722a3daafe3b4186f6b6457e060405160405180910390a35050565b600033905090565b508054600082556002029060005260206000209081019061198b919061198e565b50565b5b808211156119b957600080820160006119a891906119bd565b60018201600090555060020161198f565b5090565b5080546119c990612381565b6000825580601f106119db57506119fa565b601f0160209004906000526020600020908101906119f991906119fd565b5b50565b5b80821115611a165760008160009055506001016119fe565b5090565b6000604051905090565b600080fd5b600080fd5b6000819050919050565b611a4181611a2e565b8114611a4c57600080fd5b50565b600081359050611a5e81611a38565b92915050565b600060208284031215611a7a57611a79611a24565b5b6000611a8884828501611a4f565b91505092915050565b600081519050919050565b600082825260208201905092915050565b60005b83811015611acb578082015181840152602081019050611ab0565b60008484015250505050565b6000601f19601f8301169050919050565b6000611af382611a91565b611afd8185611a9c565b9350611b0d818560208601611aad565b611b1681611ad7565b840191505092915050565b611b2a81611a2e565b82525050565b60006040820190508181036000830152611b4a8185611ae8565b9050611b596020830184611b21565b9392505050565b600073ffffffffffffffffffffffffffffffffffffffff82169050919050565b6000611b8b82611b60565b9050919050565b611b9b81611b80565b82525050565b6000602082019050611bb66000830184611b92565b92915050565b611bc581611b80565b8114611bd057600080fd5b50565b600081359050611be281611bbc565b92915050565b600060208284031215611bfe57611bfd611a24565b5b6000611c0c84828501611bd3565b91505092915050565b600080fd5b600080fd5b7f4e487b7100000000000000000000000000000000000000000000000000000000600052604160045260246000fd5b611c5782611ad7565b810181811067ffffffffffffffff82111715611c7657611c75611c1f565b5b80604052505050565b6000611c89611a1a565b9050611c958282611c4e565b919050565b600067ffffffffffffffff821115611cb557611cb4611c1f565b5b611cbe82611ad7565b9050602081019050919050565b82818337600083830152505050565b6000611ced611ce884611c9a565b611c7f565b905082815260208101848484011115611d0957611d08611c1a565b5b611d14848285611ccb565b509392505050565b600082601f830112611d3157611d30611c15565b5b8135611d41848260208601611cda565b91505092915050565b600060208284031215611d6057611d5f611a24565b5b600082013567ffffffffffffffff811115611d7e57611d7d611a29565b5b611d8a84828501611d1c565b91505092915050565b60008115159050919050565b611da881611d93565b82525050565b6000602082019050611dc36000830184611d9f565b92915050565b6000606082019050611dde6000830186611d9f565b611deb6020830185611d9f565b611df86040830184611b21565b949350505050565b600081519050919050565b600082825260208201905092915050565b6000819050602082019050919050565b611e3581611b80565b82525050565b6000611e478383611e2c565b60208301905092915050565b6000602082019050919050565b6000611e6b82611e00565b611e758185611e0b565b9350611e8083611e1c565b8060005b83811015611eb1578151611e988882611e3b565b9750611ea383611e53565b925050600181019050611e84565b5085935050505092915050565b600081519050919050565b600082825260208201905092915050565b6000819050602082019050919050565b611ef381611a2e565b82525050565b6000611f058383611eea565b60208301905092915050565b6000602082019050919050565b6000611f2982611ebe565b611f338185611ec9565b9350611f3e83611eda565b8060005b83811015611f6f578151611f568882611ef9565b9750611f6183611f11565b925050600181019050611f42565b5085935050505092915050565b60006040820190508181036000830152611f968185611e60565b90508181036020830152611faa8184611f1e565b90509392505050565b60006020820190508181036000830152611fcd8184611ae8565b905092915050565b7f4e487b7100000000000000000000000000000000000000000000000000000000600052602160045260246000fd5b6006811061201557612014611fd5565b5b50565b600081905061202682612004565b919050565b600061203682612018565b9050919050565b6120468161202b565b82525050565b6000602082019050612061600083018461203d565b92915050565b7f566f74696e672073657373696f6e206973206e6f742061637469766500000000600082015250565b600061209d601c83611a9c565b91506120a882612067565b602082019050919050565b600060208201905081810360008301526120cc81612090565b9050919050565b7f566f746572206e6f742072656769737465726564000000000000000000000000600082015250565b6000612109601483611a9c565b9150612114826120d3565b602082019050919050565b60006020820190508181036000830152612138816120fc565b9050919050565b7f566f746572206973206e6f7420696e207468652077686974656c697374000000600082015250565b6000612175601d83611a9c565b91506121808261213f565b602082019050919050565b600060208201905081810360008301526121a481612168565b9050919050565b7f566f74657220616c726561647920766f74656400000000000000000000000000600082015250565b60006121e1601383611a9c565b91506121ec826121ab565b602082019050919050565b60006020820190508181036000830152612210816121d4565b9050919050565b7f496e76616c69642070726f706f73616c20696400000000000000000000000000600082015250565b600061224d601383611a9c565b915061225882612217565b602082019050919050565b6000602082019050818103600083015261227c81612240565b9050919050565b7f4e487b7100000000000000000000000000000000000000000000000000000000600052603260045260246000fd5b7f4e487b7100000000000000000000000000000000000000000000000000000000600052601160045260246000fd5b60006122ec82611a2e565b91507fffffffffffffffffffffffffffffffffffffffffffffffffffffffffffffffff820361231e5761231d6122b2565b5b600182019050919050565b600060408201905061233e6000830185611b92565b61234b6020830184611b21565b9392505050565b7f4e487b7100000000000000000000000000000000000000000000000000000000600052602260045260246000fd5b6000600282049050600182168061239957607f821691505b6020821081036123ac576123ab612352565b5b50919050565b7f50726f706f73616c7320726567697374726174696f6e2073657373696f6e206960008201527f73206e6f74206163746976650000000000000000000000000000000000000000602082015250565b600061240e602c83611a9c565b9150612419826123b2565b604082019050919050565b6000602082019050818103600083015261243d81612401565b9050919050565b60008190508160005260206000209050919050565b60006020601f8301049050919050565b600082821b905092915050565b6000600883026124a67fffffffffffffffffffffffffffffffffffffffffffffffffffffffffffffffff82612469565b6124b08683612469565b95508019841693508086168417925050509392505050565b6000819050919050565b60006124ed6124e86124e384611a2e565b6124c8565b611a2e565b9050919050565b6000819050919050565b612507836124d2565b61251b612513826124f4565b848454612476565b825550505050565b600090565b612530612523565b61253b8184846124fe565b505050565b5b8181101561255f57612554600082612528565b600181019050612541565b5050565b601f8211156125a45761257581612444565b61257e84612459565b8101602085101561258d578190505b6125a161259985612459565b830182612540565b50505b505050565b600082821c905092915050565b60006125c7600019846008026125a9565b1980831691505092915050565b60006125e083836125b6565b9150826002028217905092915050565b6125f982611a91565b67ffffffffffffffff81111561261257612611611c1f565b5b61261c8254612381565b612627828285612563565b600060209050601f83116001811461265a5760008415612648578287015190505b61265285826125d4565b8655506126ba565b601f19841661266886612444565b60005b828110156126905784890151825560018201915060208501945060208101905061266b565b868310156126ad57848901516126a9601f8916826125b6565b8355505b6001600288020188555050505b505050505050565b60006126cd82611a2e565b91506126d883611a2e565b92508282039050818111156126f0576126ef6122b2565b5b92915050565b600060208201905061270b6000830184611b21565b92915050565b6000604082019050612726600083018561203d565b612733602083018461203d565b9392505050565b7f566f74657220616c726561647920726567697374657265640000000000000000600082015250565b6000612770601883611a9c565b915061277b8261273a565b602082019050919050565b6000602082019050818103600083015261279f81612763565b9050919050565b7f566f74657220686173206e6f7420766f74656420796574000000000000000000600082015250565b60006127dc601783611a9c565b91506127e7826127a6565b602082019050919050565b6000602082019050818103600083015261280b816127cf565b9050919050565b600061281d82611a2e565b9150600082036128305761282f6122b2565b5b600182039050919050565b7f54616c6c6965642073657373696f6e206973206e6f7420616374697665000000600082015250565b6000612871601d83611a9c565b915061287c8261283b565b602082019050919050565b600060208201905081810360008301526128a081612864565b905091905056fea2646970667358221220c52976e226585c2b2db18d998d96435cfedd669d8dad12f2e5f19bad5d1c8bef64736f6c63430008140033",
  "linkReferences": {},
  "deployedLinkReferences": {}
}