{
  "_format": "hh-sol-artifact-1",
  "contractName": "Voting",
  "sourceName": "contracts/Voting.sol",
  "abi": [
    {
      "inputs": [],
      "stateMutability": "nonpayable",
      "type": "constructor"
    },
    {
      "inputs": [
        {
          "internalType": "address",
          "name": "owner",
          "type": "address"
        }
      ],
      "name": "OwnableInvalidOwner",
      "type": "error"
    },
    {
      "inputs": [
        {
          "internalType": "address",
          "name": "account",
          "type": "address"
        }
      ],
      "name": "OwnableUnauthorizedAccount",
      "type": "error"
    },
    {
      "anonymous": false,
      "inputs": [
        {
          "indexed": true,
          "internalType": "address",
          "name": "previousOwner",
          "type": "address"
        },
        {
          "indexed": true,
          "internalType": "address",
          "name": "newOwner",
          "type": "address"
        }
      ],
      "name": "OwnershipTransferred",
      "type": "event"
    },
    {
      "anonymous": false,
      "inputs": [
        {
          "indexed": false,
          "internalType": "uint256",
          "name": "proposalId",
          "type": "uint256"
        }
      ],
      "name": "ProposalRegistered",
      "type": "event"
    },
    {
      "anonymous": false,
      "inputs": [
        {
          "indexed": false,
          "internalType": "address",
          "name": "voter",
          "type": "address"
        },
        {
          "indexed": false,
          "internalType": "uint256",
          "name": "proposalId",
          "type": "uint256"
        }
      ],
      "name": "VoteCancelled",
      "type": "event"
    },
    {
      "anonymous": false,
      "inputs": [
        {
          "indexed": false,
          "internalType": "address",
          "name": "voter",
          "type": "address"
        },
        {
          "indexed": false,
          "internalType": "uint256",
          "name": "proposalId",
          "type": "uint256"
        }
      ],
      "name": "Voted",
      "type": "event"
    },
    {
      "anonymous": false,
      "inputs": [
        {
          "indexed": false,
          "internalType": "address",
          "name": "voterAddress",
          "type": "address"
        }
      ],
      "name": "VoterRegistered",
      "type": "event"
    },
    {
      "anonymous": false,
      "inputs": [
        {
          "indexed": false,
          "internalType": "enum Voting.WorkflowStatus",
          "name": "previousStatus",
          "type": "uint8"
        },
        {
          "indexed": false,
          "internalType": "enum Voting.WorkflowStatus",
          "name": "newStatus",
          "type": "uint8"
        }
      ],
      "name": "WorkflowStatusChange",
      "type": "event"
    },
    {
      "inputs": [
        {
          "internalType": "string",
          "name": "_description",
          "type": "string"
        }
      ],
      "name": "addProposal",
      "outputs": [],
      "stateMutability": "nonpayable",
      "type": "function"
    },
    {
      "inputs": [],
      "name": "cancelVote",
      "outputs": [],
      "stateMutability": "nonpayable",
      "type": "function"
    },
    {
      "inputs": [],
      "name": "currentWorkflowStatus",
      "outputs": [
        {
          "internalType": "enum Voting.WorkflowStatus",
          "name": "",
          "type": "uint8"
        }
      ],
      "stateMutability": "view",
      "type": "function"
    },
    {
      "inputs": [],
      "name": "endProposalsRegistration",
      "outputs": [],
      "stateMutability": "nonpayable",
      "type": "function"
    },
    {
      "inputs": [],
      "name": "endVotingSession",
      "outputs": [],
      "stateMutability": "nonpayable",
      "type": "function"
    },
    {
      "inputs": [],
      "name": "getAllProposalsWithVotes",
      "outputs": [
        {
          "internalType": "string[]",
          "name": "descriptions",
          "type": "string[]"
        },
        {
          "internalType": "uint256[]",
          "name": "voteCounts",
          "type": "uint256[]"
        },
        {
          "internalType": "address[][]",
          "name": "votersPerProposal",
          "type": "address[][]"
        }
      ],
      "stateMutability": "view",
      "type": "function"
    },
    {
      "inputs": [],
      "name": "getWinningProposal",
      "outputs": [
        {
          "internalType": "string",
          "name": "",
          "type": "string"
        }
      ],
      "stateMutability": "view",
      "type": "function"
    },
    {
      "inputs": [],
      "name": "owner",
      "outputs": [
        {
          "internalType": "address",
          "name": "",
          "type": "address"
        }
      ],
      "stateMutability": "view",
      "type": "function"
    },
    {
      "inputs": [
        {
          "internalType": "uint256",
          "name": "",
          "type": "uint256"
        }
      ],
      "name": "proposals",
      "outputs": [
        {
          "internalType": "string",
          "name": "description",
          "type": "string"
        },
        {
          "internalType": "uint256",
          "name": "voteCount",
          "type": "uint256"
        }
      ],
      "stateMutability": "view",
      "type": "function"
    },
    {
      "inputs": [
        {
          "internalType": "address",
          "name": "_voterAddress",
          "type": "address"
        }
      ],
      "name": "registerVoter",
      "outputs": [],
      "stateMutability": "nonpayable",
      "type": "function"
    },
    {
      "inputs": [],
      "name": "renounceOwnership",
      "outputs": [],
      "stateMutability": "nonpayable",
      "type": "function"
    },
    {
      "inputs": [],
      "name": "resetSession",
      "outputs": [],
      "stateMutability": "nonpayable",
      "type": "function"
    },
    {
      "inputs": [],
      "name": "startProposalsRegistration",
      "outputs": [],
      "stateMutability": "nonpayable",
      "type": "function"
    },
    {
      "inputs": [],
      "name": "startVotingSession",
      "outputs": [],
      "stateMutability": "nonpayable",
      "type": "function"
    },
    {
      "inputs": [],
      "name": "tallyVotes",
      "outputs": [],
      "stateMutability": "nonpayable",
      "type": "function"
    },
    {
      "inputs": [
        {
          "internalType": "address",
          "name": "newOwner",
          "type": "address"
        }
      ],
      "name": "transferOwnership",
      "outputs": [],
      "stateMutability": "nonpayable",
      "type": "function"
    },
    {
      "inputs": [
        {
          "internalType": "uint256",
          "name": "_proposalId",
          "type": "uint256"
        }
      ],
      "name": "vote",
      "outputs": [],
      "stateMutability": "nonpayable",
      "type": "function"
    },
    {
      "inputs": [
        {
          "internalType": "address",
          "name": "",
          "type": "address"
        }
      ],
      "name": "voterAddress",
      "outputs": [
        {
          "internalType": "bool",
          "name": "isRegistered",
          "type": "bool"
        },
        {
          "internalType": "bool",
          "name": "hasVoted",
          "type": "bool"
        },
        {
          "internalType": "uint256",
          "name": "votedProposalId",
          "type": "uint256"
        }
      ],
      "stateMutability": "view",
      "type": "function"
    },
    {
      "inputs": [
        {
          "internalType": "address",
          "name": "",
          "type": "address"
        }
      ],
      "name": "whiteList",
      "outputs": [
        {
          "internalType": "bool",
          "name": "",
          "type": "bool"
        }
      ],
      "stateMutability": "view",
      "type": "function"
    },
    {
      "inputs": [
        {
          "internalType": "uint256",
          "name": "",
          "type": "uint256"
        }
      ],
      "name": "whiteListArray",
      "outputs": [
        {
          "internalType": "address",
          "name": "",
          "type": "address"
        }
      ],
      "stateMutability": "view",
      "type": "function"
    }
  ],
  "bytecode": "0x60806040523480156200001157600080fd5b5033600073ffffffffffffffffffffffffffffffffffffffff168173ffffffffffffffffffffffffffffffffffffffff1603620000885760006040517f1e4fbdf70000000000000000000000000000000000000000000000000000000081526004016200007f9190620001d7565b60405180910390fd5b6200009981620000ce60201b60201c565b506000600660006101000a81548160ff02191690836005811115620000c357620000c2620001f4565b5b021790555062000223565b60008060009054906101000a900473ffffffffffffffffffffffffffffffffffffffff169050816000806101000a81548173ffffffffffffffffffffffffffffffffffffffff021916908373ffffffffffffffffffffffffffffffffffffffff1602179055508173ffffffffffffffffffffffffffffffffffffffff168173ffffffffffffffffffffffffffffffffffffffff167f8be0079c531659141344cd1fd0a4f28419497f9722a3daafe3b4186f6b6457e060405160405180910390a35050565b600073ffffffffffffffffffffffffffffffffffffffff82169050919050565b6000620001bf8262000192565b9050919050565b620001d181620001b2565b82525050565b6000602082019050620001ee6000830184620001c6565b92915050565b7f4e487b7100000000000000000000000000000000000000000000000000000000600052602160045260246000fd5b612b5a80620002336000396000f3fe608060405234801561001057600080fd5b506004361061012c5760003560e01c80638da5cb5b116100ad578063ee74c67811610071578063ee74c678146102c0578063eea92980146102ca578063f2fde38b146102ea578063f7ad764514610306578063f8a3ce82146103245761012c565b80638da5cb5b1461026657806395c9655414610284578063a51346201461028e578063a7bfab16146102ac578063e09b8c79146102b65761012c565b8063378a2178116100f4578063378a2178146101fa57806338db6dd3146102045780633a0bd633146102205780636c29744514610252578063715018a61461025c5761012c565b80630121b93f14610131578063013cf08b1461014d578063250d21ee1461017e5780632fdae3c5146101ae578063372c12b1146101ca575b600080fd5b61014b60048036038101906101469190611b6a565b61032e565b005b61016760048036038101906101629190611b6a565b610594565b604051610175929190611c36565b60405180910390f35b61019860048036038101906101939190611b6a565b610650565b6040516101a59190611ca7565b60405180910390f35b6101c860048036038101906101c39190611df7565b61068f565b005b6101e460048036038101906101df9190611e6c565b6107b3565b6040516101f19190611eb4565b60405180910390f35b6102026107d3565b005b61021e60048036038101906102199190611e6c565b610843565b005b61023a60048036038101906102359190611e6c565b610a2a565b60405161024993929190611ecf565b60405180910390f35b61025a610a6e565b005b610264610ade565b005b61026e610af2565b60405161027b9190611ca7565b60405180910390f35b61028c610b1b565b005b610296610e10565b6040516102a39190611f06565b60405180910390f35b6102b4610fbc565b005b6102be61102c565b005b6102c861109c565b005b6102d261110c565b6040516102e193929190612272565b60405180910390f35b61030460048036038101906102ff9190611e6c565b6116db565b005b61030e611761565b60405161031b9190612335565b60405180910390f35b61032c611774565b005b60036005811115610342576103416122be565b5b600660009054906101000a900460ff166005811115610364576103636122be565b5b146103a4576040517f08c379a000000000000000000000000000000000000000000000000000000000815260040161039b9061239c565b60405180910390fd5b600460003373ffffffffffffffffffffffffffffffffffffffff1673ffffffffffffffffffffffffffffffffffffffff16815260200190815260200160002060000160019054906101000a900460ff1615610434576040517f08c379a000000000000000000000000000000000000000000000000000000000815260040161042b90612408565b60405180910390fd5b600580549050811061047b576040517f08c379a000000000000000000000000000000000000000000000000000000000815260040161047290612474565b60405180910390fd5b6005818154811061048f5761048e612494565b5b906000526020600020906002020160010160008154809291906104b1906124f2565b91905055506001600460003373ffffffffffffffffffffffffffffffffffffffff1673ffffffffffffffffffffffffffffffffffffffff16815260200190815260200160002060000160016101000a81548160ff02191690831515021790555080600460003373ffffffffffffffffffffffffffffffffffffffff1673ffffffffffffffffffffffffffffffffffffffff168152602001908152602001600020600101819055507f4d99b957a2bc29a30ebd96a7be8e68fe50a3c701db28a91436490b7d53870ca4338260405161058992919061253a565b60405180910390a150565b600581815481106105a457600080fd5b90600052602060002090600202016000915090508060000180546105c790612592565b80601f01602080910402602001604051908101604052809291908181526020018280546105f390612592565b80156106405780601f1061061557610100808354040283529160200191610640565b820191906000526020600020905b81548152906001019060200180831161062357829003601f168201915b5050505050908060010154905082565b6002818154811061066057600080fd5b906000526020600020016000915054906101000a900473ffffffffffffffffffffffffffffffffffffffff1681565b600160058111156106a3576106a26122be565b5b600660009054906101000a900460ff1660058111156106c5576106c46122be565b5b14610705576040517f08c379a00000000000000000000000000000000000000000000000000000000081526004016106fc90612635565b60405180910390fd5b6005604051806040016040528083815260200160008152509080600181540180825580915050600190039060005260206000209060020201600090919091909150600082015181600001908161075b9190612801565b506020820151816001015550507f92e393e9b54e2f801d3ea4beb0c5e71a21cc34a5d34b77d0fb8a3aa1650dc18f600160058054905061079b91906128d3565b6040516107a89190612907565b60405180910390a150565b60016020528060005260406000206000915054906101000a900460ff1681565b6107db61191d565b7f0a97a4ee45751e2abf3e4fc8946939630b11b371ea8ae39ccdc3056e98f5cc3f6004600560405161080e929190612922565b60405180910390a16005600660006101000a81548160ff0219169083600581111561083c5761083b6122be565b5b0217905550565b61084b61191d565b600460008273ffffffffffffffffffffffffffffffffffffffff1673ffffffffffffffffffffffffffffffffffffffff16815260200190815260200160002060000160009054906101000a900460ff16156108db576040517f08c379a00000000000000000000000000000000000000000000000000000000081526004016108d290612997565b60405180910390fd5b6002819080600181540180825580915050600190039060005260206000200160009091909190916101000a81548173ffffffffffffffffffffffffffffffffffffffff021916908373ffffffffffffffffffffffffffffffffffffffff16021790555060018060008373ffffffffffffffffffffffffffffffffffffffff1673ffffffffffffffffffffffffffffffffffffffff16815260200190815260200160002060006101000a81548160ff0219169083151502179055506001600460008373ffffffffffffffffffffffffffffffffffffffff1673ffffffffffffffffffffffffffffffffffffffff16815260200190815260200160002060000160006101000a81548160ff0219169083151502179055507fb6be2187d059cc2a55fe29e0e503b566e1e0f8c8780096e185429350acffd3dd81604051610a1f9190611ca7565b60405180910390a150565b60046020528060005260406000206000915090508060000160009054906101000a900460ff16908060000160019054906101000a900460ff16908060010154905083565b610a7661191d565b7f0a97a4ee45751e2abf3e4fc8946939630b11b371ea8ae39ccdc3056e98f5cc3f60016002604051610aa9929190612922565b60405180910390a16002600660006101000a81548160ff02191690836005811115610ad757610ad66122be565b5b0217905550565b610ae661191d565b610af060006119a4565b565b60008060009054906101000a900473ffffffffffffffffffffffffffffffffffffffff16905090565b60036005811115610b2f57610b2e6122be565b5b600660009054906101000a900460ff166005811115610b5157610b506122be565b5b14610b91576040517f08c379a0000000000000000000000000000000000000000000000000000000008152600401610b889061239c565b60405180910390fd5b600460003373ffffffffffffffffffffffffffffffffffffffff1673ffffffffffffffffffffffffffffffffffffffff16815260200190815260200160002060000160009054906101000a900460ff16610c20576040517f08c379a0000000000000000000000000000000000000000000000000000000008152600401610c1790612a03565b60405180910390fd5b600460003373ffffffffffffffffffffffffffffffffffffffff1673ffffffffffffffffffffffffffffffffffffffff16815260200190815260200160002060000160019054906101000a900460ff16610caf576040517f08c379a0000000000000000000000000000000000000000000000000000000008152600401610ca690612a6f565b60405180910390fd5b6000600460003373ffffffffffffffffffffffffffffffffffffffff1673ffffffffffffffffffffffffffffffffffffffff16815260200190815260200160002060010154905060058181548110610d0a57610d09612494565b5b90600052602060002090600202016001016000815480929190610d2c90612a8f565b91905055506000600460003373ffffffffffffffffffffffffffffffffffffffff1673ffffffffffffffffffffffffffffffffffffffff16815260200190815260200160002060000160016101000a81548160ff0219169083151502179055506000600460003373ffffffffffffffffffffffffffffffffffffffff1673ffffffffffffffffffffffffffffffffffffffff168152602001908152602001600020600101819055507fd0c71f84a63a9b5864c48adde8c98859c81519c363097592efd0198e64ddb5f63382604051610e0592919061253a565b60405180910390a150565b6060600580811115610e2557610e246122be565b5b600660009054906101000a900460ff166005811115610e4757610e466122be565b5b14610e87576040517f08c379a0000000000000000000000000000000000000000000000000000000008152600401610e7e90612b04565b60405180910390fd5b60008060005b600580549050811015610f06578260058281548110610eaf57610eae612494565b5b9060005260206000209060020201600101541115610ef35760058181548110610edb57610eda612494565b5b90600052602060002090600202016001015492508091505b8080610efe906124f2565b915050610e8d565b5060058181548110610f1b57610f1a612494565b5b90600052602060002090600202016000018054610f3790612592565b80601f0160208091040260200160405190810160405280929190818152602001828054610f6390612592565b8015610fb05780601f10610f8557610100808354040283529160200191610fb0565b820191906000526020600020905b815481529060010190602001808311610f9357829003601f168201915b50505050509250505090565b610fc461191d565b7f0a97a4ee45751e2abf3e4fc8946939630b11b371ea8ae39ccdc3056e98f5cc3f60036004604051610ff7929190612922565b60405180910390a16004600660006101000a81548160ff02191690836005811115611025576110246122be565b5b0217905550565b61103461191d565b7f0a97a4ee45751e2abf3e4fc8946939630b11b371ea8ae39ccdc3056e98f5cc3f60006001604051611067929190612922565b60405180910390a16001600660006101000a81548160ff02191690836005811115611095576110946122be565b5b0217905550565b6110a461191d565b7f0a97a4ee45751e2abf3e4fc8946939630b11b371ea8ae39ccdc3056e98f5cc3f600260036040516110d7929190612922565b60405180910390a16003600660006101000a81548160ff02191690836005811115611105576111046122be565b5b0217905550565b6060806060600060058054905090508067ffffffffffffffff81111561113557611134611ccc565b5b60405190808252806020026020018201604052801561116857816020015b60608152602001906001900390816111535790505b5093508067ffffffffffffffff81111561118557611184611ccc565b5b6040519080825280602002602001820160405280156111b35781602001602082028036833780820191505090505b5092508067ffffffffffffffff8111156111d0576111cf611ccc565b5b60405190808252806020026020018201604052801561120357816020015b60608152602001906001900390816111ee5790505b50915060005b818110156116d4576005818154811061122557611224612494565b5b9060005260206000209060020201600001805461124190612592565b80601f016020809104026020016040519081016040528092919081815260200182805461126d90612592565b80156112ba5780601f1061128f576101008083540402835291602001916112ba565b820191906000526020600020905b81548152906001019060200180831161129d57829003601f168201915b50505050508582815181106112d2576112d1612494565b5b6020026020010181905250600581815481106112f1576112f0612494565b5b90600052602060002090600202016001015484828151811061131657611315612494565b5b6020026020010181815250506000805b60028054905081101561147357600460006002838154811061134b5761134a612494565b5b9060005260206000200160009054906101000a900473ffffffffffffffffffffffffffffffffffffffff1673ffffffffffffffffffffffffffffffffffffffff1673ffffffffffffffffffffffffffffffffffffffff16815260200190815260200160002060000160019054906101000a900460ff16801561144c57508260046000600284815481106113e1576113e0612494565b5b9060005260206000200160009054906101000a900473ffffffffffffffffffffffffffffffffffffffff1673ffffffffffffffffffffffffffffffffffffffff1673ffffffffffffffffffffffffffffffffffffffff16815260200190815260200160002060010154145b1561146057818061145c906124f2565b9250505b808061146b906124f2565b915050611326565b5060008167ffffffffffffffff8111156114905761148f611ccc565b5b6040519080825280602002602001820160405280156114be5781602001602082028036833780820191505090505b5090506000805b60028054905081101561169e5760046000600283815481106114ea576114e9612494565b5b9060005260206000200160009054906101000a900473ffffffffffffffffffffffffffffffffffffffff1673ffffffffffffffffffffffffffffffffffffffff1673ffffffffffffffffffffffffffffffffffffffff16815260200190815260200160002060000160019054906101000a900460ff1680156115eb57508460046000600284815481106115805761157f612494565b5b9060005260206000200160009054906101000a900473ffffffffffffffffffffffffffffffffffffffff1673ffffffffffffffffffffffffffffffffffffffff1673ffffffffffffffffffffffffffffffffffffffff16815260200190815260200160002060010154145b1561168b576002818154811061160457611603612494565b5b9060005260206000200160009054906101000a900473ffffffffffffffffffffffffffffffffffffffff1683838151811061164257611641612494565b5b602002602001019073ffffffffffffffffffffffffffffffffffffffff16908173ffffffffffffffffffffffffffffffffffffffff16815250508180611687906124f2565b9250505b8080611696906124f2565b9150506114c5565b50818685815181106116b3576116b2612494565b5b602002602001018190525050505080806116cc906124f2565b915050611209565b5050909192565b6116e361191d565b600073ffffffffffffffffffffffffffffffffffffffff168173ffffffffffffffffffffffffffffffffffffffff16036117555760006040517f1e4fbdf700000000000000000000000000000000000000000000000000000000815260040161174c9190611ca7565b60405180910390fd5b61175e816119a4565b50565b600660009054906101000a900460ff1681565b61177c61191d565b6000600660006101000a81548160ff021916908360058111156117a2576117a16122be565b5b0217905550600560006117b59190611a70565b60005b60028054905081101561191a576000600282815481106117db576117da612494565b5b9060005260206000200160009054906101000a900473ffffffffffffffffffffffffffffffffffffffff1690506000600460008373ffffffffffffffffffffffffffffffffffffffff1673ffffffffffffffffffffffffffffffffffffffff16815260200190815260200160002060000160006101000a81548160ff0219169083151502179055506000600460008373ffffffffffffffffffffffffffffffffffffffff1673ffffffffffffffffffffffffffffffffffffffff16815260200190815260200160002060000160016101000a81548160ff0219169083151502179055506000600460008373ffffffffffffffffffffffffffffffffffffffff1673ffffffffffffffffffffffffffffffffffffffff16815260200190815260200160002060010181905550508080611912906124f2565b9150506117b8565b50565b611925611a68565b73ffffffffffffffffffffffffffffffffffffffff16611943610af2565b73ffffffffffffffffffffffffffffffffffffffff16146119a257611966611a68565b6040517f118cdaa70000000000000000000000000000000000000000000000000000000081526004016119999190611ca7565b60405180910390fd5b565b60008060009054906101000a900473ffffffffffffffffffffffffffffffffffffffff169050816000806101000a81548173ffffffffffffffffffffffffffffffffffffffff021916908373ffffffffffffffffffffffffffffffffffffffff1602179055508173ffffffffffffffffffffffffffffffffffffffff168173ffffffffffffffffffffffffffffffffffffffff167f8be0079c531659141344cd1fd0a4f28419497f9722a3daafe3b4186f6b6457e060405160405180910390a35050565b600033905090565b5080546000825560020290600052602060002090810190611a919190611a94565b50565b5b80821115611abf5760008082016000611aae9190611ac3565b600182016000905550600201611a95565b5090565b508054611acf90612592565b6000825580601f10611ae15750611b00565b601f016020900490600052602060002090810190611aff9190611b03565b5b50565b5b80821115611b1c576000816000905550600101611b04565b5090565b6000604051905090565b600080fd5b600080fd5b6000819050919050565b611b4781611b34565b8114611b5257600080fd5b50565b600081359050611b6481611b3e565b92915050565b600060208284031215611b8057611b7f611b2a565b5b6000611b8e84828501611b55565b91505092915050565b600081519050919050565b600082825260208201905092915050565b60005b83811015611bd1578082015181840152602081019050611bb6565b60008484015250505050565b6000601f19601f8301169050919050565b6000611bf982611b97565b611c038185611ba2565b9350611c13818560208601611bb3565b611c1c81611bdd565b840191505092915050565b611c3081611b34565b82525050565b60006040820190508181036000830152611c508185611bee565b9050611c5f6020830184611c27565b9392505050565b600073ffffffffffffffffffffffffffffffffffffffff82169050919050565b6000611c9182611c66565b9050919050565b611ca181611c86565b82525050565b6000602082019050611cbc6000830184611c98565b92915050565b600080fd5b600080fd5b7f4e487b7100000000000000000000000000000000000000000000000000000000600052604160045260246000fd5b611d0482611bdd565b810181811067ffffffffffffffff82111715611d2357611d22611ccc565b5b80604052505050565b6000611d36611b20565b9050611d428282611cfb565b919050565b600067ffffffffffffffff821115611d6257611d61611ccc565b5b611d6b82611bdd565b9050602081019050919050565b82818337600083830152505050565b6000611d9a611d9584611d47565b611d2c565b905082815260208101848484011115611db657611db5611cc7565b5b611dc1848285611d78565b509392505050565b600082601f830112611dde57611ddd611cc2565b5b8135611dee848260208601611d87565b91505092915050565b600060208284031215611e0d57611e0c611b2a565b5b600082013567ffffffffffffffff811115611e2b57611e2a611b2f565b5b611e3784828501611dc9565b91505092915050565b611e4981611c86565b8114611e5457600080fd5b50565b600081359050611e6681611e40565b92915050565b600060208284031215611e8257611e81611b2a565b5b6000611e9084828501611e57565b91505092915050565b60008115159050919050565b611eae81611e99565b82525050565b6000602082019050611ec96000830184611ea5565b92915050565b6000606082019050611ee46000830186611ea5565b611ef16020830185611ea5565b611efe6040830184611c27565b949350505050565b60006020820190508181036000830152611f208184611bee565b905092915050565b600081519050919050565b600082825260208201905092915050565b6000819050602082019050919050565b600082825260208201905092915050565b6000611f7082611b97565b611f7a8185611f54565b9350611f8a818560208601611bb3565b611f9381611bdd565b840191505092915050565b6000611faa8383611f65565b905092915050565b6000602082019050919050565b6000611fca82611f28565b611fd48185611f33565b935083602082028501611fe685611f44565b8060005b8581101561202257848403895281516120038582611f9e565b945061200e83611fb2565b925060208a01995050600181019050611fea565b50829750879550505050505092915050565b600081519050919050565b600082825260208201905092915050565b6000819050602082019050919050565b61206981611b34565b82525050565b600061207b8383612060565b60208301905092915050565b6000602082019050919050565b600061209f82612034565b6120a9818561203f565b93506120b483612050565b8060005b838110156120e55781516120cc888261206f565b97506120d783612087565b9250506001810190506120b8565b5085935050505092915050565b600081519050919050565b600082825260208201905092915050565b6000819050602082019050919050565b600081519050919050565b600082825260208201905092915050565b6000819050602082019050919050565b61215381611c86565b82525050565b6000612165838361214a565b60208301905092915050565b6000602082019050919050565b60006121898261211e565b6121938185612129565b935061219e8361213a565b8060005b838110156121cf5781516121b68882612159565b97506121c183612171565b9250506001810190506121a2565b5085935050505092915050565b60006121e8838361217e565b905092915050565b6000602082019050919050565b6000612208826120f2565b61221281856120fd565b9350836020820285016122248561210e565b8060005b85811015612260578484038952815161224185826121dc565b945061224c836121f0565b925060208a01995050600181019050612228565b50829750879550505050505092915050565b6000606082019050818103600083015261228c8186611fbf565b905081810360208301526122a08185612094565b905081810360408301526122b481846121fd565b9050949350505050565b7f4e487b7100000000000000000000000000000000000000000000000000000000600052602160045260246000fd5b600681106122fe576122fd6122be565b5b50565b600081905061230f826122ed565b919050565b600061231f82612301565b9050919050565b61232f81612314565b82525050565b600060208201905061234a6000830184612326565b92915050565b7f566f74696e672073657373696f6e206973206e6f742061637469766500000000600082015250565b6000612386601c83611ba2565b915061239182612350565b602082019050919050565b600060208201905081810360008301526123b581612379565b9050919050565b7f566f74657220616c726561647920766f74656400000000000000000000000000600082015250565b60006123f2601383611ba2565b91506123fd826123bc565b602082019050919050565b60006020820190508181036000830152612421816123e5565b9050919050565b7f496e76616c69642070726f706f73616c20696400000000000000000000000000600082015250565b600061245e601383611ba2565b915061246982612428565b602082019050919050565b6000602082019050818103600083015261248d81612451565b9050919050565b7f4e487b7100000000000000000000000000000000000000000000000000000000600052603260045260246000fd5b7f4e487b7100000000000000000000000000000000000000000000000000000000600052601160045260246000fd5b60006124fd82611b34565b91507fffffffffffffffffffffffffffffffffffffffffffffffffffffffffffffffff820361252f5761252e6124c3565b5b600182019050919050565b600060408201905061254f6000830185611c98565b61255c6020830184611c27565b9392505050565b7f4e487b7100000000000000000000000000000000000000000000000000000000600052602260045260246000fd5b600060028204905060018216806125aa57607f821691505b6020821081036125bd576125bc612563565b5b50919050565b7f50726f706f73616c7320726567697374726174696f6e2073657373696f6e206960008201527f73206e6f74206163746976650000000000000000000000000000000000000000602082015250565b600061261f602c83611ba2565b915061262a826125c3565b604082019050919050565b6000602082019050818103600083015261264e81612612565b9050919050565b60008190508160005260206000209050919050565b60006020601f8301049050919050565b600082821b905092915050565b6000600883026126b77fffffffffffffffffffffffffffffffffffffffffffffffffffffffffffffffff8261267a565b6126c1868361267a565b95508019841693508086168417925050509392505050565b6000819050919050565b60006126fe6126f96126f484611b34565b6126d9565b611b34565b9050919050565b6000819050919050565b612718836126e3565b61272c61272482612705565b848454612687565b825550505050565b600090565b612741612734565b61274c81848461270f565b505050565b5b8181101561277057612765600082612739565b600181019050612752565b5050565b601f8211156127b55761278681612655565b61278f8461266a565b8101602085101561279e578190505b6127b26127aa8561266a565b830182612751565b50505b505050565b600082821c905092915050565b60006127d8600019846008026127ba565b1980831691505092915050565b60006127f183836127c7565b9150826002028217905092915050565b61280a82611b97565b67ffffffffffffffff81111561282357612822611ccc565b5b61282d8254612592565b612838828285612774565b600060209050601f83116001811461286b5760008415612859578287015190505b61286385826127e5565b8655506128cb565b601f19841661287986612655565b60005b828110156128a15784890151825560018201915060208501945060208101905061287c565b868310156128be57848901516128ba601f8916826127c7565b8355505b6001600288020188555050505b505050505050565b60006128de82611b34565b91506128e983611b34565b9250828203905081811115612901576129006124c3565b5b92915050565b600060208201905061291c6000830184611c27565b92915050565b60006040820190506129376000830185612326565b6129446020830184612326565b9392505050565b7f566f74657220616c726561647920726567697374657265640000000000000000600082015250565b6000612981601883611ba2565b915061298c8261294b565b602082019050919050565b600060208201905081810360008301526129b081612974565b9050919050565b7f566f746572206e6f742072656769737465726564000000000000000000000000600082015250565b60006129ed601483611ba2565b91506129f8826129b7565b602082019050919050565b60006020820190508181036000830152612a1c816129e0565b9050919050565b7f566f74657220686173206e6f7420766f74656420796574000000000000000000600082015250565b6000612a59601783611ba2565b9150612a6482612a23565b602082019050919050565b60006020820190508181036000830152612a8881612a4c565b9050919050565b6000612a9a82611b34565b915060008203612aad57612aac6124c3565b5b600182039050919050565b7f54616c6c6965642073657373696f6e206973206e6f7420616374697665000000600082015250565b6000612aee601d83611ba2565b9150612af982612ab8565b602082019050919050565b60006020820190508181036000830152612b1d81612ae1565b905091905056fea2646970667358221220bf7c6bfd86ebfd425f08dc98fcc6f8962610913525811d0201ab98956ed658ff64736f6c63430008140033",
  "linkReferences": {},
  "deployedLinkReferences": {}
}